:020000001628C0
:0E000600831203132B088A002A0882000800C8
:1000140003208A110A128000840AAA0A0319AB0A6F
:08002400F003031D0A28080087
:10002C003F3083120313A0000630A1005B30A20006
:10003C004F30A3006630A4006D30A5007D30A600C3
:10004C000730A7007F30A8006F30A900AC01AD01CC
:10005C00AE01AF01B001B101B201B301831686014B
:10006C0087010130880083128601870108185928FE
:10007C000230FB008630FC009930FD00FD0B44285B
:10008C00FC0B4428FB0B442808185928AC0A03190C
:10009C00AD0A00302D06031D55280A302C06031D11
:1000AC005928AC01AD01881876280230FB00863047
:1000BC00FC009930FD00FD0B6128FC0B6128FB0B4B
:1000CC00612888187628AE0A0319AF0A00302F066B
:1000DC00031D72280A302E06031D7628AE01AF01CF
:1000EC00081993280230FB008630FC009930FD0083
:1000FC00FD0B7E28FC0B7E28FB0B7E280819932811
:10010C00B00A0319B10A00303106031D8F280A30DA
:10011C003006031D9328B001B1018819B0280230B4
:10012C00FB008630FC009930FD00FD0B9B28FC0B7E
:10013C009B28FB0B9B288819B028B20A0319B30A19
:10014C0000303306031DAC280A303206031DB028DC
:10015C00B201B3012C08203E840000088600071071
:10016C001A30FC00F830FD00FD0BBA28FC0BBA2845
:10017C00000007142E08203E84000008860087101B
:10018C001A30FC00F830FD00FD0BCA28FC0BCA2805
:10019C00000087143008203E8400000886000711F8
:1001AC001A30FC00F830FD00FD0BDA28FC0BDA28C5
:1001BC00000007153208203E8400000886008711D5
:1001CC001A30FC00F830FD00FD0BEA28FC0BEA2885
:0801DC00000087153C28F12802
:02400E004A2F37
:00000001FF
