:020000001428C2
:1000060083120313F1012208710203181328F20167
:100016001430720203181128F20A0B28F10A062876
:020026000800D0
:1000280083160313870188018030831288008701B3
:100038000A30A200032040308800FF3087000A30D1
:10004800A200032020308800FF3087000A30A20079
:10005800032010308800DB3087000A30A20003201C
:1000680008308800DB3087000A30A2000320043003
:100078008800DB3087000A30A200032002308800A5
:10008800C33087000A30A2000320013088008701AE
:0A0098000A30A200032018285028A7
:02400E004A2F37
:00000001FF
