:020000001628C0
:0E000600831203132B088A002A0882000800C8
:1000140003208A110A128000840AAA0A0319AB0A6F
:08002400F003031D0A28080087
:10002C003F3083120313A0000630A1005B30A20006
:10003C004F30A3006630A4006D30A5007D30A600C3
:10004C000730A7007F30A8006F30A900AC01AD01CC
:10005C0083168601FF3083128600AC01AD0180301F
:10006C002D06F00080307002031D3E280A302C0251
:10007C00031853282C08203E840000088600823088
:10008C00FC00DD30FD00FD0B4928FC0B492800006D
:0C009C000000AC0A0319AD0A35285328F7
:02400E004A2F37
:00000001FF
