:020000001628C0
:0E0006008312031323088A00220882000800D8
:1000140003208A110A128000840AA20A0319A30A7F
:08002400F003031D0A28080087
:10002C0083120313A001A10183168601831286019A
:10003C0086150430FB000C30FC003330FD00FD0B4A
:10004C002528FC0B2528FB0B252800000000861119
:10005C0006150430FB000C30FC003330FD00FD0BAA
:10006C003528FC0B3528FB0B352800000000061149
:10007C0086140430FB000C30FC003330FD00FD0B0B
:10008C004528FC0B4528FB0B45280000000086107A
:10009C0006140430FB000C30FC003330FD00FD0B6B
:1000AC005528FC0B5528FB0B5528000000000610AA
:0A00BC00A00A0319A10A1E286228F9
:02400E004A2F37
:00000001FF
